{"abi":[{"type":"constructor","inputs":[{"name":"admin","type":"address","internalType":"address"},{"name":"stationManager","type":"address","internalType":"address"}],"stateMutability":"nonpayable"},{"type":"fallback","stateMutability":"payable"},{"type":"receive","stateMutability":"payable"},{"type":"function","name":"DEFAULT_ADMIN_ROLE","inputs":[],"outputs":[{"name":"","type":"bytes32","internalType":"bytes32"}],"stateMutability":"view"},{"type":"function","name":"REQUIRED_STORAGE_DEPOSIT_FEE_ROLE","inputs":[],"outputs":[{"name":"","type":"bytes32","internalType":"bytes32"}],"stateMutability":"view"},{"type":"function","name":"STATION_MANAGER_ROLE","inputs":[],"outputs":[{"name":"","type":"bytes32","internalType":"bytes32"}],"stateMutability":"view"},{"type":"function","name":"deployMachineSmartAccount","inputs":[{"name":"machineOwner","type":"address","internalType":"address"},{"name":"nonce","type":"uint256","internalType":"uint256"},{"name":"signature","type":"bytes","internalType":"bytes"}],"outputs":[{"name":"","type":"address","internalType":"address"}],"stateMutability":"nonpayable"},{"type":"function","name":"eip712Domain","inputs":[],"outputs":[{"name":"fields","type":"bytes1","internalType":"bytes1"},{"name":"name","type":"string","internalType":"string"},{"name":"version","type":"string","internalType":"string"},{"name":"chainId","type":"uint256","internalType":"uint256"},{"name":"verifyingContract","type":"address","internalType":"address"},{"name":"salt","type":"bytes32","internalType":"bytes32"},{"name":"extensions","type":"uint256[]","internalType":"uint256[]"}],"stateMutability":"view"},{"type":"function","name":"executeMachineBatchTransactions","inputs":[{"name":"machineAddresses","type":"address[]","internalType":"address[]"},{"name":"targets","type":"address[]","internalType":"address[]"},{"name":"data","type":"bytes[]","internalType":"bytes[]"},{"name":"nonce","type":"uint256","internalType":"uint256"},{"name":"machineNonces","type":"uint256[]","internalType":"uint256[]"},{"name":"signature","type":"bytes","internalType":"bytes"},{"name":"machineOwnerSignatures","type":"bytes[]","internalType":"bytes[]"}],"outputs":[],"stateMutability":"nonpayable"},{"type":"function","name":"executeMachineTransaction","inputs":[{"name":"machineAddress","type":"address","internalType":"address"},{"name":"target","type":"address","internalType":"address"},{"name":"data","type":"bytes","internalType":"bytes"},{"name":"nonce","type":"uint256","internalType":"uint256"},{"name":"signature","type":"bytes","internalType":"bytes"},{"name":"machineOwnerSignature","type":"bytes","internalType":"bytes"}],"outputs":[],"stateMutability":"nonpayable"},{"type":"function","name":"executeMachineTransferBalance","inputs":[{"name":"machineAddress","type":"address","internalType":"address"},{"name":"recipientAddress","type":"address","internalType":"address"},{"name":"nonce","type":"uint256","internalType":"uint256"},{"name":"signature","type":"bytes","internalType":"bytes"},{"name":"machineOwnerSignature","type":"bytes","internalType":"bytes"}],"outputs":[],"stateMutability":"nonpayable"},{"type":"function","name":"executeTransaction","inputs":[{"name":"target","type":"address","internalType":"address"},{"name":"data","type":"bytes","internalType":"bytes"},{"name":"nonce","type":"uint256","internalType":"uint256"},{"name":"signature","type":"bytes","internalType":"bytes"}],"outputs":[],"stateMutability":"nonpayable"},{"type":"function","name":"getDomainSeparator","inputs":[],"outputs":[{"name":"","type":"bytes32","internalType":"bytes32"}],"stateMutability":"view"},{"type":"function","name":"getRoleAdmin","inputs":[{"name":"role","type":"bytes32","internalType":"bytes32"}],"outputs":[{"name":"","type":"bytes32","internalType":"bytes32"}],"stateMutability":"view"},{"type":"function","name":"grantRole","inputs":[{"name":"role","type":"bytes32","internalType":"bytes32"},{"name":"account","type":"address","internalType":"address"}],"outputs":[],"stateMutability":"nonpayable"},{"type":"function","name":"hasRole","inputs":[{"name":"role","type":"bytes32","internalType":"bytes32"},{"name":"account","type":"address","internalType":"address"}],"outputs":[{"name":"","type":"bool","internalType":"bool"}],"stateMutability":"view"},{"type":"function","name":"renounceRole","inputs":[{"name":"role","type":"bytes32","internalType":"bytes32"},{"name":"callerConfirmation","type":"address","internalType":"address"}],"outputs":[],"stateMutability":"nonpayable"},{"type":"function","name":"revokeRole","inputs":[{"name":"role","type":"bytes32","internalType":"bytes32"},{"name":"account","type":"address","internalType":"address"}],"outputs":[],"stateMutability":"nonpayable"},{"type":"function","name":"supportsInterface","inputs":[{"name":"interfaceId","type":"bytes4","internalType":"bytes4"}],"outputs":[{"name":"","type":"bool","internalType":"bool"}],"stateMutability":"view"},{"type":"function","name":"transferMachineStationBalance","inputs":[{"name":"newMachineStationAddress","type":"address","internalType":"address"},{"name":"nonce","type":"uint256","internalType":"uint256"},{"name":"signature","type":"bytes","internalType":"bytes"}],"outputs":[],"stateMutability":"nonpayable"},{"type":"event","name":"BatchMachineTransactionFailed","inputs":[{"name":"machineAddress","type":"address","indexed":true,"internalType":"address"},{"name":"index","type":"uint256","indexed":false,"internalType":"uint256"}],"anonymous":false},{"type":"event","name":"EIP712DomainChanged","inputs":[],"anonymous":false},{"type":"event","name":"MachineSmartAccountDeployed","inputs":[{"name":"deployedAddress","type":"address","indexed":true,"internalType":"address"}],"anonymous":false},{"type":"event","name":"MachineStationBalanceTransferred","inputs":[{"name":"oldMachineStation","type":"address","indexed":true,"internalType":"address"},{"name":"newMachineStation","type":"address","indexed":true,"internalType":"address"},{"name":"amount","type":"uint256","indexed":false,"internalType":"uint256"},{"name":"nonce","type":"uint256","indexed":false,"internalType":"uint256"}],"anonymous":false},{"type":"event","name":"OnFailbackCall","inputs":[],"anonymous":false},{"type":"event","name":"OnReceivedCall","inputs":[],"anonymous":false},{"type":"event","name":"RoleAdminChanged","inputs":[{"name":"role","type":"bytes32","indexed":true,"internalType":"bytes32"},{"name":"previousAdminRole","type":"bytes32","indexed":true,"internalType":"bytes32"},{"name":"newAdminRole","type":"bytes32","indexed":true,"internalType":"bytes32"}],"anonymous":false},{"type":"event","name":"RoleGranted","inputs":[{"name":"role","type":"bytes32","indexed":true,"internalType":"bytes32"},{"name":"account","type":"address","indexed":true,"internalType":"address"},{"name":"sender","type":"address","indexed":true,"internalType":"address"}],"anonymous":false},{"type":"event","name":"RoleRevoked","inputs":[{"name":"role","type":"bytes32","indexed":true,"internalType":"bytes32"},{"name":"account","type":"address","indexed":true,"internalType":"address"},{"name":"sender","type":"address","indexed":true,"internalType":"address"}],"anonymous":false},{"type":"event","name":"TransactionExecuted","inputs":[{"name":"target","type":"address","indexed":true,"internalType":"address"},{"name":"data","type":"bytes","indexed":false,"internalType":"bytes"},{"name":"nonce","type":"uint256","indexed":false,"internalType":"uint256"},{"name":"executor","type":"address","indexed":true,"internalType":"address"}],"anonymous":false},{"type":"error","name":"AccessControlBadConfirmation","inputs":[]},{"type":"error","name":"AccessControlUnauthorizedAccount","inputs":[{"name":"account","type":"address","internalType":"address"},{"name":"neededRole","type":"bytes32","internalType":"bytes32"}]},{"type":"error","name":"ECDSAInvalidSignature","inputs":[]},{"type":"error","name":"ECDSAInvalidSignatureLength","inputs":[{"name":"length","type":"uint256","internalType":"uint256"}]},{"type":"error","name":"ECDSAInvalidSignatureS","inputs":[{"name":"s","type":"bytes32","internalType":"bytes32"}]},{"type":"error","name":"InvalidMachineAddressTargetsDataLength","inputs":[]},{"type":"error","name":"InvalidOwnerSignature","inputs":[{"name":"messageHash","type":"bytes32","internalType":"bytes32"},{"name":"nonce","type":"uint256","internalType":"uint256"}]},{"type":"error","name":"InvalidShortString","inputs":[]},{"type":"error","name":"NonceAlreadyUsed","inputs":[{"name":"nonce","type":"uint256","internalType":"uint256"}]},{"type":"error","name":"SafeERC20FailedOperation","inputs":[{"name":"token","type":"address","internalType":"address"}]},{"type":"error","name":"StringTooLong","inputs":[{"name":"str","type":"string","internalType":"string"}]},{"type":"error","name":"TargetCallFailed","inputs":[{"name":"target","type":"address","internalType":"address"}]},{"type":"error","name":"ZeroAddress","inputs":[]}],"bytecode":{"object":"0x61016060405234801561001157600080fd5b506040516149283803806149288339810160408190526100309161034e565b604080518082018252601581527f4d616368696e6553746174696f6e466163746f72790000000000000000000000602080830191909152825180840190935260018352603160f81b908301529061008882600061020a565b6101205261009781600161020a565b61014052815160208084019190912060e052815190820120610100524660a05261012460e05161010051604080517f8b73c3c69bb8fe3d512ecc4cf759cc79239f7b179b0ffacaa9a75d522b39400f60208201529081019290925260608201524660808201523060a082015260009060c00160405160208183030381529060405280519060200120905090565b60805250503060c0526001600160a01b0382166101545760405163d92e233d60e01b815260040160405180910390fd5b6001600160a01b03811661017b5760405163d92e233d60e01b815260040160405180910390fd5b61018660008361023d565b506101b17fba272f7c1126fd55bcfa14f28b454a38c350674073ade218b9dfdce40c1d01948261023d565b506101cc60008051602061490883398151915261080061023d565b506101e760008051602061490883398151915261080261023d565b5061020260008051602061490883398151915261080161023d565b505050610554565b60006020835110156102265761021f836102eb565b9050610237565b816102318482610422565b5060ff90505b92915050565b60008281526002602090815260408083206001600160a01b038516845290915281205460ff166102e35760008381526002602090815260408083206001600160a01b03861684529091529020805460ff1916600117905561029b3390565b6001600160a01b0316826001600160a01b0316847f2f8788117e7eff1d82e926ec794901d17c78024a50270940304540a733656f0d60405160405180910390a4506001610237565b506000610237565b600080829050601f8151111561031f578260405163305a27a960e01b815260040161031691906104e1565b60405180910390fd5b805161032a82610530565b179392505050565b80516001600160a01b038116811461034957600080fd5b919050565b6000806040838503121561036157600080fd5b61036a83610332565b915061037860208401610332565b90509250929050565b634e487b7160e01b600052604160045260246000fd5b600181811c908216806103ab57607f821691505b6020821081036103cb57634e487b7160e01b600052602260045260246000fd5b50919050565b601f82111561041d576000816000526020600020601f850160051c810160208610156103fa5750805b601f850160051c820191505b8181101561041957828155600101610406565b5050505b505050565b81516001600160401b0381111561043b5761043b610381565b61044f816104498454610397565b846103d1565b602080601f831160018114610484576000841561046c5750858301515b600019600386901b1c1916600185901b178555610419565b600085815260208120601f198616915b828110156104b357888601518255948401946001909101908401610494565b50858210156104d15787850151600019600388901b60f8161c191681555b5050505050600190811b01905550565b60006020808352835180602085015260005b8181101561050f578581018301518582016040015282016104f3565b506000604082860101526040601f19601f8301168501019250505092915050565b805160208083015191908110156103cb5760001960209190910360031b1b16919050565b60805160a05160c05160e05161010051610120516101405161435a6105ae60003960006116470152600061161a015260006117470152600061171f0152600061167a015260006116a4015260006116ce015261435a6000f3fe6080604052600436106101025760003560e01c806371c925c311610095578063a217fddf11610064578063a217fddf14610347578063d547741f1461035c578063ed00dcb51461037c578063ed24911d1461039c578063f38459eb146103b157610132565b806371c925c3146102bd57806384b0196e146102df57806391d1485414610307578063a13219061461032757610132565b806336568abe116100d157806336568abe146102125780634159fc1514610232578063471e60b714610252578063490faada1461028a57610132565b806301ffc9a71461015d57806306c90d7b14610192578063248a9ca3146101b45780632f2ff15d146101f257610132565b36610132576040517fdd3c646f071b41da826ff81c94dc1b875023e92d79bc1be9595ba9e8f62e41f590600090a1005b6040517f3dc49a9ff525948491d546d36f1f8f4a5e8c1061519701a9ea138fe2c3cb1a4390600090a1005b34801561016957600080fd5b5061017d610178366004611bdf565b6103d1565b60405190151581526020015b60405180910390f35b34801561019e57600080fd5b506101b26101ad366004611c75565b610408565b005b3480156101c057600080fd5b506101e46101cf366004611d3c565b60009081526002602052604090206001015490565b604051908152602001610189565b3480156101fe57600080fd5b506101b261020d366004611d55565b61062e565b34801561021e57600080fd5b506101b261022d366004611d55565b610659565b34801561023e57600080fd5b506101b261024d366004611f06565b610691565b34801561025e57600080fd5b5061027261026d36600461201a565b610a69565b6040516001600160a01b039091168152602001610189565b34801561029657600080fd5b506101e47e3e1d629c42fadb08d65dad7500c211ed988ea4560b14fca6d4aea74d8c3a1181565b3480156102c957600080fd5b506101e460008051602061430583398151915281565b3480156102eb57600080fd5b506102f4610c11565b60405161018997969594939291906120ba565b34801561031357600080fd5b5061017d610322366004611d55565b610c57565b34801561033357600080fd5b506101b2610342366004612153565b610c82565b34801561035357600080fd5b506101e4600081565b34801561036857600080fd5b506101b2610377366004611d55565b610e66565b34801561038857600080fd5b506101b26103973660046121ee565b610e8b565b3480156103a857600080fd5b506101e46110e6565b3480156103bd57600080fd5b506101b26103cc36600461201a565b6110f5565b60006001600160e01b03198216637965db0b60e01b148061040257506301ffc9a760e01b6001600160e01b03198316145b92915050565b600080516020614305833981519152610420816112fa565b6001600160a01b038a166104475760405163d92e233d60e01b815260040160405180910390fd5b6001600160a01b03891661046e5760405163d92e233d60e01b815260040160405180910390fd5b60008681526003602052604090205460ff16156104a657604051632472ad4160e21b8152600481018790526024015b60405180910390fd5b60007f90e38a06e0fbef4f398e1c2f195324b0a08b93b67ac0ff9ed53bb4ec857d475d8b8b8b8b6040516104db929190612278565b6040805191829003822060208301959095526001600160a01b039384169082015291166060820152608081019190915260a0810188905260c00160405160208183030381529060405280519060200120905061056f8187878080601f0160208091040260200160405190810160405280939291908181526020018383808284376000920191909152508c9250611307915050565b61059657604051633625d6bb60e01b8152600481018290526024810188905260440161049d565b6000878152600360205260409020805460ff191660011790556105b98b8b61136a565b604051630d88b34560e31b81526001600160a01b038c1690636c459a28906105ef908d908d908d908d908b908b906004016122b1565b600060405180830381600087803b15801561060957600080fd5b505af115801561061d573d6000803e3d6000fd5b505050505050505050505050505050565b600082815260026020526040902060010154610649816112fa565b610653838361142f565b50505050565b6001600160a01b03811633146106825760405163334bd91960e11b815260040160405180910390fd5b61068c82826114c3565b505050565b6000805160206143058339815191526106a9816112fa565b60018b5110156106cc5760405163d92e233d60e01b815260040160405180910390fd5b60018a5110156106ef5760405163d92e233d60e01b815260040160405180910390fd5b60008781526003602052604090205460ff161561072257604051632472ad4160e21b81526004810188905260240161049d565b89518b5114158061073457508a518814155b156107525760405163305641d560e01b815260040160405180910390fd5b60007f51b3bb3d1d8e49a1a756fe9ea3e5befbae72e10ed5d35ebbfff71536773944d18c60405160200161078691906122fc565b604051602081830303815290604052805190602001208c6040516020016107ad91906122fc565b604051602081830303815290604052805190602001206107cd8d8d611530565b8b8b6040516020016107df919061233b565b60408051601f198184030181528282528051602091820120908301979097528101949094526060840192909252608083015260a082015260c081019190915260e00160405160208183030381529060405280519060200120905061087b8187878080601f0160208091040260200160405190810160405280939291908181526020018383808284376000920191909152508d9250611307915050565b6108a257604051633625d6bb60e01b8152600481018290526024810189905260440161049d565b6000888152600360205260408120805460ff191660011790555b8c51811015610a5a576109018d82815181106108da576108da612365565b60200260200101518d83815181106108f4576108f4612365565b602002602001015161136a565b8c818151811061091357610913612365565b60200260200101516001600160a01b0316636c459a288d838151811061093b5761093b612365565b60200260200101518d8d8581811061095557610955612365565b9050602002810190610967919061237b565b8c868151811061097957610979612365565b60200260200101518a8a8881811061099357610993612365565b90506020028101906109a5919061237b565b6040518763ffffffff1660e01b81526004016109c6969594939291906122b1565b600060405180830381600087803b1580156109e057600080fd5b505af19250505080156109f1575060015b610a52578c8181518110610a0757610a07612365565b60200260200101516001600160a01b03167fc2de7b98267a207c216fb6cc259c457538aa3a4439c5944f1313dfda29548c9a82604051610a4991815260200190565b60405180910390a25b6001016108bc565b50505050505050505050505050565b6000600080516020614305833981519152610a83816112fa565b6001600160a01b038616610aaa5760405163d92e233d60e01b815260040160405180910390fd5b604080517fcb883d475dccf01f51b65f8b39268d178457d3fddf68741f0d23b23b9667f08960208201526001600160a01b0388169181019190915260608101869052600090608001604051602081830303815290604052805190602001209050610b4c8186868080601f0160208091040260200160405190810160405280939291908181526020018383808284376000920191909152508b9250611307915050565b610b7357604051633625d6bb60e01b8152600481018290526024810187905260440161049d565b600086815260036020526040808220805460ff191660011790555188903090610b9b90611bd2565b6001600160a01b03928316815291166020820152604001604051809103906000f080158015610bce573d6000803e3d6000fd5b506040519091506001600160a01b038216907f437b0f498ec98a9c0806db0a647e9a775919e80cdaff191d79b0e1058642d3c990600090a2979650505050505050565b600060608060008060006060610c25611613565b610c2d611640565b60408051600080825260208201909252600f60f81b9b939a50919850469750309650945092509050565b60009182526002602090815260408084206001600160a01b0393909316845291905290205460ff1690565b600080516020614305833981519152610c9a816112fa565b6001600160a01b038816610cc15760405163d92e233d60e01b815260040160405180910390fd5b6001600160a01b038716610ce85760405163d92e233d60e01b815260040160405180910390fd5b60008681526003602052604090205460ff1615610d1b57604051632472ad4160e21b81526004810187905260240161049d565b604080517f697034aac2a7a1f33a41731a5606341564e2b5afb05f29ad63707a05365d441060208201526001600160a01b03808b169282019290925290881660608201526080810187905260009060a001604051602081830303815290604052805190602001209050610dc68187878080601f0160208091040260200160405190810160405280939291908181526020018383808284376000920191909152508c9250611307915050565b610ded57604051633625d6bb60e01b8152600481018290526024810188905260440161049d565b60008781526003602052604090819020805460ff19166001179055516344f22f2160e01b81526001600160a01b038a16906344f22f2190610e38908b908b90899089906004016123c2565b600060405180830381600087803b158015610e5257600080fd5b505af1158015610a5a573d6000803e3d6000fd5b600082815260026020526040902060010154610e81816112fa565b61065383836114c3565b600080516020614305833981519152610ea3816112fa565b6001600160a01b038716610eca5760405163d92e233d60e01b815260040160405180910390fd5b60008481526003602052604090205460ff1615610efd57604051632472ad4160e21b81526004810185905260240161049d565b60007f9b32e4d070363cb19be3cb3fd56e8ded5ecf343731510315eb777279bf0bb88f888888604051610f31929190612278565b604051908190038120610f6993929189906020019384526001600160a01b039290921660208401526040830152606082015260800190565b604051602081830303815290604052805190602001209050610fc38185858080601f0160208091040260200160405190810160405280939291908181526020018383808284376000920191909152508a9250611307915050565b610fea57604051633625d6bb60e01b8152600481018290526024810186905260440161049d565b600085815260036020526040808220805460ff19166001179055516001600160a01b038a169061101d908a908a90612278565b6000604051808303816000865af19150503d806000811461105a576040519150601f19603f3d011682016040523d82523d6000602084013e61105f565b606091505b505090508061108c57604051636515b5e360e11b81526001600160a01b038a16600482015260240161049d565b336001600160a01b0316896001600160a01b03167fe9200e38f15edd38df305303c1b8a3ddcf792f530857fa4304c56918923688b48a8a8a6040516110d3939291906123ea565b60405180910390a3505050505050505050565b60006110f061166d565b905090565b6000611100816112fa565b6001600160a01b0385166111275760405163d92e233d60e01b815260040160405180910390fd5b60008481526003602052604090205460ff161561115a57604051632472ad4160e21b81526004810185905260240161049d565b604080517fb754af7fdd46b6fc55b711af63d7b59453c35e3d1908dffba9481079276ce15760208201526001600160a01b03871691810191909152606081018590526000906080016040516020818303038152906040528051906020012090506111fc8185858080601f0160208091040260200160405190810160405280939291908181526020018383808284376000920191909152508a9250611307915050565b61122357604051633625d6bb60e01b8152600481018290526024810186905260440161049d565b600085815260036020526040808220805460ff19166001179055516370a0823160e01b8152306004820152610809906370a0823190602401602060405180830381865afa158015611278573d6000803e3d6000fd5b505050506040513d601f19601f8201168201806040525081019061129c919061240e565b90506112ab6108098883611798565b60408051828152602081018890526001600160a01b0389169130917fbe575ac7be9393c7e92e96432563d13256bfff696a7260480bebb40dfeecb65c910160405180910390a350505050505050565b61130481336117ea565b50565b60008181526003602052604081205460ff161561133a57604051632472ad4160e21b81526004810183905260240161049d565b600061134585611823565b905060006113538286611850565b9050611360600082610c57565b9695505050505050565b6113937e3e1d629c42fadb08d65dad7500c211ed988ea4560b14fca6d4aea74d8c3a1182610c57565b1561142b576040516370a0823160e01b81526001600160a01b0383166004820152600090610809906370a0823190602401602060405180830381865afa1580156113e1573d6000803e3d6000fd5b505050506040513d601f19601f82011682018060405250810190611405919061240e565b9050670494654067e10000811161068c5761068c61080984670de0b6b3a7640000611798565b5050565b600061143b8383610c57565b6114bb5760008381526002602090815260408083206001600160a01b03861684529091529020805460ff191660011790556114733390565b6001600160a01b0316826001600160a01b0316847f2f8788117e7eff1d82e926ec794901d17c78024a50270940304540a733656f0d60405160405180910390a4506001610402565b506000610402565b60006114cf8383610c57565b156114bb5760008381526002602090815260408083206001600160a01b0386168085529252808320805460ff1916905551339286917ff6391f5c32d9c69d2a47ea670b442974b53935d1edc7fd64eb21e047a839171b9190a4506001610402565b6000808267ffffffffffffffff81111561154c5761154c611d81565b604051908082528060200260200182016040528015611575578160200160208202803683370190505b50905060005b838110156115e25784848281811061159557611595612365565b90506020028101906115a7919061237b565b6040516115b5929190612278565b60405180910390208282815181106115cf576115cf612365565b602090810291909101015260010161157b565b50806040516020016115f4919061233b565b6040516020818303038152906040528051906020012091505092915050565b60606110f07f0000000000000000000000000000000000000000000000000000000000000000600061187a565b60606110f07f0000000000000000000000000000000000000000000000000000000000000000600161187a565b6000306001600160a01b037f0000000000000000000000000000000000000000000000000000000000000000161480156116c657507f000000000000000000000000000000000000000000000000000000000000000046145b156116f057507f000000000000000000000000000000000000000000000000000000000000000090565b6110f0604080517f8b73c3c69bb8fe3d512ecc4cf759cc79239f7b179b0ffacaa9a75d522b39400f60208201527f0000000000000000000000000000000000000000000000000000000000000000918101919091527f000000000000000000000000000000000000000000000000000000000000000060608201524660808201523060a082015260009060c00160405160208183030381529060405280519060200120905090565b604080516001600160a01b038416602482015260448082018490528251808303909101815260649091019091526020810180516001600160e01b031663a9059cbb60e01b17905261068c908490611925565b6117f48282610c57565b61142b5760405163e2517d3f60e01b81526001600160a01b03821660048201526024810183905260440161049d565b600061040261183061166d565b8360405161190160f01b8152600281019290925260228201526042902090565b6000806000806118608686611996565b92509250925061187082826119e3565b5090949350505050565b606060ff83146118945761188d83611a9c565b9050610402565b8180546118a090612427565b80601f01602080910402602001604051908101604052809291908181526020018280546118cc90612427565b80156119195780601f106118ee57610100808354040283529160200191611919565b820191906000526020600020905b8154815290600101906020018083116118fc57829003601f168201915b50505050509050610402565b600080602060008451602086016000885af180611948576040513d6000823e3d81fd5b50506000513d9150811561196057806001141561196d565b6001600160a01b0384163b155b1561065357604051635274afe760e01b81526001600160a01b038516600482015260240161049d565b600080600083516041036119d05760208401516040850151606086015160001a6119c288828585611adb565b9550955095505050506119dc565b50508151600091506002905b9250925092565b60008260038111156119f7576119f7612461565b03611a00575050565b6001826003811115611a1457611a14612461565b03611a325760405163f645eedf60e01b815260040160405180910390fd5b6002826003811115611a4657611a46612461565b03611a675760405163fce698f760e01b81526004810182905260240161049d565b6003826003811115611a7b57611a7b612461565b0361142b576040516335e2f38360e21b81526004810182905260240161049d565b60606000611aa983611baa565b604080516020808252818301909252919250600091906020820181803683375050509182525060208101929092525090565b600080807f7fffffffffffffffffffffffffffffff5d576e7357a4501ddfe92f46681b20a0841115611b165750600091506003905082611ba0565b604080516000808252602082018084528a905260ff891692820192909252606081018790526080810186905260019060a0016020604051602081039080840390855afa158015611b6a573d6000803e3d6000fd5b5050604051601f1901519150506001600160a01b038116611b9657506000925060019150829050611ba0565b9250600091508190505b9450945094915050565b600060ff8216601f81111561040257604051632cd44ac360e21b815260040160405180910390fd5b611e8d8061247883390190565b600060208284031215611bf157600080fd5b81356001600160e01b031981168114611c0957600080fd5b9392505050565b80356001600160a01b0381168114611c2757600080fd5b919050565b60008083601f840112611c3e57600080fd5b50813567ffffffffffffffff811115611c5657600080fd5b602083019150836020828501011115611c6e57600080fd5b9250929050565b600080600080600080600080600060c08a8c031215611c9357600080fd5b611c9c8a611c10565b9850611caa60208b01611c10565b975060408a013567ffffffffffffffff80821115611cc757600080fd5b611cd38d838e01611c2c565b909950975060608c0135965060808c0135915080821115611cf357600080fd5b611cff8d838e01611c2c565b909650945060a08c0135915080821115611d1857600080fd5b50611d258c828d01611c2c565b915080935050809150509295985092959850929598565b600060208284031215611d4e57600080fd5b5035919050565b60008060408385031215611d6857600080fd5b82359150611d7860208401611c10565b90509250929050565b634e487b7160e01b600052604160045260246000fd5b604051601f8201601f1916810167ffffffffffffffff81118282101715611dc057611dc0611d81565b604052919050565b600067ffffffffffffffff821115611de257611de2611d81565b5060051b60200190565b600082601f830112611dfd57600080fd5b81356020611e12611e0d83611dc8565b611d97565b8083825260208201915060208460051b870101935086841115611e3457600080fd5b602086015b84811015611e5757611e4a81611c10565b8352918301918301611e39565b509695505050505050565b60008083601f840112611e7457600080fd5b50813567ffffffffffffffff811115611e8c57600080fd5b6020830191508360208260051b8501011115611c6e57600080fd5b600082601f830112611eb857600080fd5b81356020611ec8611e0d83611dc8565b8083825260208201915060208460051b870101935086841115611eea57600080fd5b602086015b84811015611e575780358352918301918301611eef565b60008060008060008060008060008060e08b8d031215611f2557600080fd5b8a3567ffffffffffffffff80821115611f3d57600080fd5b611f498e838f01611dec565b9b5060208d0135915080821115611f5f57600080fd5b611f6b8e838f01611dec565b9a5060408d0135915080821115611f8157600080fd5b611f8d8e838f01611e62565b909a50985060608d0135975060808d0135915080821115611fad57600080fd5b611fb98e838f01611ea7565b965060a08d0135915080821115611fcf57600080fd5b611fdb8e838f01611c2c565b909650945060c08d0135915080821115611ff457600080fd5b506120018d828e01611e62565b915080935050809150509295989b9194979a5092959850565b6000806000806060858703121561203057600080fd5b61203985611c10565b935060208501359250604085013567ffffffffffffffff81111561205c57600080fd5b61206887828801611c2c565b95989497509550505050565b6000815180845260005b8181101561209a5760208185018101518683018201520161207e565b506000602082860101526020601f19601f83011685010191505092915050565b60ff60f81b881681526000602060e060208401526120db60e084018a612074565b83810360408501526120ed818a612074565b606085018990526001600160a01b038816608086015260a0850187905284810360c08601528551808252602080880193509091019060005b8181101561214157835183529284019291840191600101612125565b50909c9b505050505050505050505050565b600080600080600080600060a0888a03121561216e57600080fd5b61217788611c10565b965061218560208901611c10565b955060408801359450606088013567ffffffffffffffff808211156121a957600080fd5b6121b58b838c01611c2c565b909650945060808a01359150808211156121ce57600080fd5b506121db8a828b01611c2c565b989b979a50959850939692959293505050565b6000806000806000806080878903121561220757600080fd5b61221087611c10565b9550602087013567ffffffffffffffff8082111561222d57600080fd5b6122398a838b01611c2c565b909750955060408901359450606089013591508082111561225957600080fd5b5061226689828a01611c2c565b979a9699509497509295939492505050565b8183823760009101908152919050565b81835281816020850137506000828201602090810191909152601f909101601f19169091010190565b6001600160a01b03871681526080602082018190526000906122d69083018789612288565b85604084015282810360608401526122ef818587612288565b9998505050505050505050565b815160009082906020808601845b8381101561232f5781516001600160a01b03168552938201939082019060010161230a565b50929695505050505050565b815160009082906020808601845b8381101561232f57815185529382019390820190600101612349565b634e487b7160e01b600052603260045260246000fd5b6000808335601e1984360301811261239257600080fd5b83018035915067ffffffffffffffff8211156123ad57600080fd5b602001915036819003821315611c6e57600080fd5b60018060a01b0385168152836020820152606060408201526000611360606083018486612288565b6040815260006123fe604083018587612288565b9050826020830152949350505050565b60006020828403121561242057600080fd5b5051919050565b600181811c9082168061243b57607f821691505b60208210810361245b57634e487b7160e01b600052602260045260246000fd5b50919050565b634e487b7160e01b600052602160045260246000fdfe61016060405234801561001157600080fd5b50604051611e8d380380611e8d83398101604081905261003091610318565b604080518082018252601381527f4d616368696e65536d6172744163636f756e7400000000000000000000000000602080830191909152825180840190935260018352603160f81b90830152906100888260006101d4565b610120526100978160016101d4565b61014052815160208084019190912060e052815190820120610100524660a05261012460e05161010051604080517f8b73c3c69bb8fe3d512ecc4cf759cc79239f7b179b0ffacaa9a75d522b39400f60208201529081019290925260608201524660808201523060a082015260009060c00160405160208183030381529060405280519060200120905090565b60805250503060c0526001600160a01b0382166101545760405163d92e233d60e01b815260040160405180910390fd5b6001600160a01b03811661017b5760405163d92e233d60e01b815260040160405180910390fd5b600380546001600160a01b0319166001600160a01b0384161790556101a1600082610207565b506101cc7f71d98c4c57ac41ab6c267d775dd524f57f99d0415ec2bcc47d70d31c0efd17b182610207565b50505061051e565b60006020835110156101f0576101e9836102b5565b9050610201565b816101fb84826103ec565b5060ff90505b92915050565b60008281526002602090815260408083206001600160a01b038516845290915281205460ff166102ad5760008381526002602090815260408083206001600160a01b03861684529091529020805460ff191660011790556102653390565b6001600160a01b0316826001600160a01b0316847f2f8788117e7eff1d82e926ec794901d17c78024a50270940304540a733656f0d60405160405180910390a4506001610201565b506000610201565b600080829050601f815111156102e9578260405163305a27a960e01b81526004016102e091906104ab565b60405180910390fd5b80516102f4826104fa565b179392505050565b80516001600160a01b038116811461031357600080fd5b919050565b6000806040838503121561032b57600080fd5b610334836102fc565b9150610342602084016102fc565b90509250929050565b634e487b7160e01b600052604160045260246000fd5b600181811c9082168061037557607f821691505b60208210810361039557634e487b7160e01b600052602260045260246000fd5b50919050565b601f8211156103e7576000816000526020600020601f850160051c810160208610156103c45750805b601f850160051c820191505b818110156103e3578281556001016103d0565b5050505b505050565b81516001600160401b038111156104055761040561034b565b610419816104138454610361565b8461039b565b602080601f83116001811461044e57600084156104365750858301515b600019600386901b1c1916600185901b1785556103e3565b600085815260208120601f198616915b8281101561047d5788860151825594840194600190910190840161045e565b508582101561049b5787850151600019600388901b60f8161c191681555b5050505050600190811b01905550565b60006020808352835180602085015260005b818110156104d9578581018301518582016040015282016104bd565b506000604082860101526040601f19601f8301168501019250505092915050565b805160208083015191908110156103955760001960209190910360031b1b16919050565b60805160a05160c05160e0516101005161012051610140516119156105786000396000610dfe01526000610dd101526000610efe01526000610ed601526000610e3101526000610e5b01526000610e8501526119156000f3fe608060405234801561001057600080fd5b50600436106101005760003560e01c80637b063e8f11610097578063a217fddf11610066578063a217fddf1461024e578063d547741f14610256578063ed24911d14610269578063fb6a9dec1461027157600080fd5b80637b063e8f146101e257806384b0196e146101f55780638da5cb5b1461021057806391d148541461023b57600080fd5b806344f22f21116100d357806344f22f2114610186578063636cbe46146101995780636717e41c146101ac5780636c459a28146101cf57600080fd5b806301ffc9a714610105578063248a9ca31461012d5780632f2ff15d1461015e57806336568abe14610173575b600080fd5b6101186101133660046112e4565b610286565b60405190151581526020015b60405180910390f35b61015061013b366004611315565b60009081526002602052604090206001015490565b604051908152602001610124565b61017161016c36600461134a565b6102bd565b005b61017161018136600461134a565b6102e8565b6101716101943660046113bf565b610320565b6101186101a7366004611460565b61053b565b6101186101ba366004611315565b60046020526000908152604090205460ff1681565b6101716101dd366004611508565b6105a2565b6101716101f03660046115d7565b6107fe565b6101fd610a8b565b60405161012497969594939291906116e7565b600354610223906001600160a01b031681565b6040516001600160a01b039091168152602001610124565b61011861024936600461134a565b610ad1565b610150600081565b61017161026436600461134a565b610afc565b610150610b21565b6101506000805160206118c083398151915281565b60006001600160e01b03198216637965db0b60e01b14806102b757506301ffc9a760e01b6001600160e01b03198316145b92915050565b6000828152600260205260409020600101546102d881610b30565b6102e28383610b3d565b50505050565b6001600160a01b03811633146103115760405163334bd91960e11b815260040160405180910390fd5b61031b8282610bd1565b505050565b6000805160206118c083398151915261033881610b30565b6001600160a01b03851661035f5760405163d92e233d60e01b815260040160405180910390fd5b60008481526004602052604090205460ff161561039757604051632472ad4160e21b8152600481018590526024015b60405180910390fd5b604080517f60ae25e845e8a72489f31d7ae79be37e761d197498dd68de7f7c02dfe585a08e60208201526001600160a01b03871691810191909152606081018590526000906080016040516020818303038152906040528051906020012090506104398185858080601f0160208091040260200160405190810160405280939291908181526020018383808284376000920191909152508a925061053b915050565b61046057604051633b66eae960e21b8152600481018290526024810186905260440161038e565b6000858152600460208190526040808320805460ff19166001179055516370a0823160e01b81523091810191909152610809906370a0823190602401602060405180830381865afa1580156104b9573d6000803e3d6000fd5b505050506040513d601f19601f820116820180604052508101906104dd9190611780565b90506104ec6108098883610c3e565b60408051828152602081018890526001600160a01b0389169130917fe4506670db3a18facacc640ffa234ff9a722f01542a25fd235ffa83b394ee713910160405180910390a350505050505050565b60008181526004602052604081205460ff161561056e57604051632472ad4160e21b81526004810183905260240161038e565b600061057985610c90565b905060006105878286610cbd565b6003546001600160a01b039081169116149695505050505050565b6105ba6000805160206118c083398151915233610ad1565b1580156105d257506003546001600160a01b03163314155b156105f257604051634a0bfec160e01b815233600482015260240161038e565b60008381526004602052604090205460ff161561062557604051632472ad4160e21b81526004810184905260240161038e565b60007f1ff1e0e2a8ecfc4e51458a32b21d4053e7cc8220f6b9c2e72223c2169d70df88878787604051610659929190611799565b60405190819003812061069193929188906020019384526001600160a01b039290921660208401526040830152606082015260800190565b6040516020818303038152906040528051906020012090506106eb8184848080601f01602080910402602001604051908101604052809392919081815260200183838082843760009201919091525089925061053b915050565b61071257604051633b66eae960e21b8152600481018290526024810185905260440161038e565b600084815260046020526040808220805460ff19166001179055516001600160a01b038916906107459089908990611799565b6000604051808303816000865af19150503d8060008114610782576040519150601f19603f3d011682016040523d82523d6000602084013e610787565b606091505b50509050806107b457604051636515b5e360e11b81526001600160a01b038916600482015260240161038e565b6040516001600160a01b0389168152309033907fb8a1f97c3aadecf502b8d6cfb8ef2741544cb95b7dfc786e004f532db2752c249060200160405180910390a35050505050505050565b6108166000805160206118c083398151915233610ad1565b15801561082e57506003546001600160a01b03163314155b1561084e57604051634a0bfec160e01b815233600482015260240161038e565b60008381526004602052604090205460ff161561088157604051632472ad4160e21b81526004810184905260240161038e565b600061088d8686610ce7565b905060007fb5a77f2236108db8ee3721e29cb2de5c7ac280c84df715e06f3faf11ba2bf723886040516020016108c391906117a9565b60408051601f19818403018152828252805160209182012090830193909352810191909152606081018390526080810186905260a0016040516020818303038152906040528051906020012090506109538185858080601f0160208091040260200160405190810160405280939291908181526020018383808284376000920191909152508a925061053b915050565b61097a57604051633b66eae960e21b8152600481018290526024810186905260440161038e565b6000858152600460205260408120805460ff191660011790555b8851811015610a805760008982815181106109b1576109b16117e8565b60200260200101516001600160a01b03168989848181106109d4576109d46117e8565b90506020028101906109e691906117fe565b6040516109f4929190611799565b6000604051808303816000865af19150503d8060008114610a31576040519150601f19603f3d011682016040523d82523d6000602084013e610a36565b606091505b505060408051848152821515602082015291925030917f55fbc4af9054883bbf9a45d08a8bcac93017032109539cfe6bebe9180238cce7910160405180910390a250600101610994565b505050505050505050565b600060608060008060006060610a9f610dca565b610aa7610df7565b60408051600080825260208201909252600f60f81b9b939a50919850469750309650945092509050565b60009182526002602090815260408084206001600160a01b0393909316845291905290205460ff1690565b600082815260026020526040902060010154610b1781610b30565b6102e28383610bd1565b6000610b2b610e24565b905090565b610b3a8133610f4f565b50565b6000610b498383610ad1565b610bc95760008381526002602090815260408083206001600160a01b03861684529091529020805460ff19166001179055610b813390565b6001600160a01b0316826001600160a01b0316847f2f8788117e7eff1d82e926ec794901d17c78024a50270940304540a733656f0d60405160405180910390a45060016102b7565b5060006102b7565b6000610bdd8383610ad1565b15610bc95760008381526002602090815260408083206001600160a01b0386168085529252808320805460ff1916905551339286917ff6391f5c32d9c69d2a47ea670b442974b53935d1edc7fd64eb21e047a839171b9190a45060016102b7565b604080516001600160a01b038416602482015260448082018490528251808303909101815260649091019091526020810180516001600160e01b031663a9059cbb60e01b17905261031b908490610f8c565b60006102b7610c9d610e24565b8360405161190160f01b8152600281019290925260228201526042902090565b600080600080610ccd8686610ffd565b925092509250610cdd828261104a565b5090949350505050565b6000808267ffffffffffffffff811115610d0357610d03611419565b604051908082528060200260200182016040528015610d2c578160200160208202803683370190505b50905060005b83811015610d9957848482818110610d4c57610d4c6117e8565b9050602002810190610d5e91906117fe565b604051610d6c929190611799565b6040518091039020828281518110610d8657610d866117e8565b6020908102919091010152600101610d32565b5080604051602001610dab9190611845565b6040516020818303038152906040528051906020012091505092915050565b6060610b2b7f00000000000000000000000000000000000000000000000000000000000000006000611103565b6060610b2b7f00000000000000000000000000000000000000000000000000000000000000006001611103565b6000306001600160a01b037f000000000000000000000000000000000000000000000000000000000000000016148015610e7d57507f000000000000000000000000000000000000000000000000000000000000000046145b15610ea757507f000000000000000000000000000000000000000000000000000000000000000090565b610b2b604080517f8b73c3c69bb8fe3d512ecc4cf759cc79239f7b179b0ffacaa9a75d522b39400f60208201527f0000000000000000000000000000000000000000000000000000000000000000918101919091527f000000000000000000000000000000000000000000000000000000000000000060608201524660808201523060a082015260009060c00160405160208183030381529060405280519060200120905090565b610f598282610ad1565b610f885760405163e2517d3f60e01b81526001600160a01b03821660048201526024810183905260440161038e565b5050565b600080602060008451602086016000885af180610faf576040513d6000823e3d81fd5b50506000513d91508115610fc7578060011415610fd4565b6001600160a01b0384163b155b156102e257604051635274afe760e01b81526001600160a01b038516600482015260240161038e565b600080600083516041036110375760208401516040850151606086015160001a611029888285856111ae565b955095509550505050611043565b50508151600091506002905b9250925092565b600082600381111561105e5761105e61186f565b03611067575050565b600182600381111561107b5761107b61186f565b036110995760405163f645eedf60e01b815260040160405180910390fd5b60028260038111156110ad576110ad61186f565b036110ce5760405163fce698f760e01b81526004810182905260240161038e565b60038260038111156110e2576110e261186f565b03610f88576040516335e2f38360e21b81526004810182905260240161038e565b606060ff831461111d576111168361127d565b90506102b7565b81805461112990611885565b80601f016020809104026020016040519081016040528092919081815260200182805461115590611885565b80156111a25780601f10611177576101008083540402835291602001916111a2565b820191906000526020600020905b81548152906001019060200180831161118557829003601f168201915b505050505090506102b7565b600080807f7fffffffffffffffffffffffffffffff5d576e7357a4501ddfe92f46681b20a08411156111e95750600091506003905082611273565b604080516000808252602082018084528a905260ff891692820192909252606081018790526080810186905260019060a0016020604051602081039080840390855afa15801561123d573d6000803e3d6000fd5b5050604051601f1901519150506001600160a01b03811661126957506000925060019150829050611273565b9250600091508190505b9450945094915050565b6060600061128a836112bc565b604080516020808252818301909252919250600091906020820181803683375050509182525060208101929092525090565b600060ff8216601f8111156102b757604051632cd44ac360e21b815260040160405180910390fd5b6000602082840312156112f657600080fd5b81356001600160e01b03198116811461130e57600080fd5b9392505050565b60006020828403121561132757600080fd5b5035919050565b80356001600160a01b038116811461134557600080fd5b919050565b6000806040838503121561135d57600080fd5b8235915061136d6020840161132e565b90509250929050565b60008083601f84011261138857600080fd5b50813567ffffffffffffffff8111156113a057600080fd5b6020830191508360208285010111156113b857600080fd5b9250929050565b600080600080606085870312156113d557600080fd5b6113de8561132e565b935060208501359250604085013567ffffffffffffffff81111561140157600080fd5b61140d87828801611376565b95989497509550505050565b634e487b7160e01b600052604160045260246000fd5b604051601f8201601f1916810167ffffffffffffffff8111828210171561145857611458611419565b604052919050565b60008060006060848603121561147557600080fd5b8335925060208085013567ffffffffffffffff8082111561149557600080fd5b818701915087601f8301126114a957600080fd5b8135818111156114bb576114bb611419565b6114cd601f8201601f1916850161142f565b915080825288848285010111156114e357600080fd5b8084840185840137600084828401015250809450505050604084013590509250925092565b6000806000806000806080878903121561152157600080fd5b61152a8761132e565b9550602087013567ffffffffffffffff8082111561154757600080fd5b6115538a838b01611376565b909750955060408901359450606089013591508082111561157357600080fd5b5061158089828a01611376565b979a9699509497509295939492505050565b60008083601f8401126115a457600080fd5b50813567ffffffffffffffff8111156115bc57600080fd5b6020830191508360208260051b85010111156113b857600080fd5b600080600080600080608087890312156115f057600080fd5b863567ffffffffffffffff8082111561160857600080fd5b818901915089601f83011261161c57600080fd5b813560208282111561163057611630611419565b8160051b61163f82820161142f565b928352848101820192828101908e85111561165957600080fd5b958301955b8487101561167e5761166f8761132e565b8252958301959083019061165e565b9b5050508a01359250508082111561169557600080fd5b6115538a838b01611592565b6000815180845260005b818110156116c7576020818501810151868301820152016116ab565b506000602082860101526020601f19601f83011685010191505092915050565b60ff60f81b881681526000602060e0602084015261170860e084018a6116a1565b838103604085015261171a818a6116a1565b606085018990526001600160a01b038816608086015260a0850187905284810360c08601528551808252602080880193509091019060005b8181101561176e57835183529284019291840191600101611752565b50909c9b505050505050505050505050565b60006020828403121561179257600080fd5b5051919050565b8183823760009101908152919050565b815160009082906020808601845b838110156117dc5781516001600160a01b0316855293820193908201906001016117b7565b50929695505050505050565b634e487b7160e01b600052603260045260246000fd5b6000808335601e1984360301811261181557600080fd5b83018035915067ffffffffffffffff82111561183057600080fd5b6020019150368190038213156113b857600080fd5b815160009082906020808601845b838110156117dc57815185529382019390820190600101611853565b634e487b7160e01b600052602160045260246000fd5b600181811c9082168061189957607f821691505b6020821081036118b957634e487b7160e01b600052602260045260246000fd5b5091905056fe71d98c4c57ac41ab6c267d775dd524f57f99d0415ec2bcc47d70d31c0efd17b1a26469706673582212201a2d95bb88d0a77cc681c8b0b333c5d83aa3ebbaa51309f8bd2adf2d1ce6f0bd64736f6c63430008190033ba272f7c1126fd55bcfa14f28b454a38c350674073ade218b9dfdce40c1d0194a26469706673582212206bf479eac3bf769550ca0cc39cd7e17eba272b5f97eeb15844e1f3207d38cb7164736f6c63430008190033003e1d629c42fadb08d65dad7500c211ed988ea4560b14fca6d4aea74d8c3a11","linkReferences":{}},"methodIdentifiers":{"DEFAULT_ADMIN_ROLE()":"a217fddf","REQUIRED_STORAGE_DEPOSIT_FEE_ROLE()":"490faada","STATION_MANAGER_ROLE()":"71c925c3","deployMachineSmartAccount(address,uint256,bytes)":"471e60b7","eip712Domain()":"84b0196e","executeMachineBatchTransactions(address[],address[],bytes[],uint256,uint256[],bytes,bytes[])":"4159fc15","executeMachineTransaction(address,address,bytes,uint256,bytes,bytes)":"06c90d7b","executeMachineTransferBalance(address,address,uint256,bytes,bytes)":"a1321906","executeTransaction(address,bytes,uint256,bytes)":"ed00dcb5","getDomainSeparator()":"ed24911d","getRoleAdmin(bytes32)":"248a9ca3","grantRole(bytes32,address)":"2f2ff15d","hasRole(bytes32,address)":"91d14854","renounceRole(bytes32,address)":"36568abe","revokeRole(bytes32,address)":"d547741f","supportsInterface(bytes4)":"01ffc9a7","transferMachineStationBalance(address,uint256,bytes)":"f38459eb"},"id":46}