{"abi":[{"type":"constructor","inputs":[{"name":"admin","type":"address","internalType":"address"},{"name":"stationManager","type":"address","internalType":"address"}],"stateMutability":"nonpayable"},{"type":"fallback","stateMutability":"payable"},{"type":"receive","stateMutability":"payable"},{"type":"function","name":"DEFAULT_ADMIN_ROLE","inputs":[],"outputs":[{"name":"","type":"bytes32","internalType":"bytes32"}],"stateMutability":"view"},{"type":"function","name":"REQUIRED_STORAGE_DEPOSIT_FEE_ROLE","inputs":[],"outputs":[{"name":"","type":"bytes32","internalType":"bytes32"}],"stateMutability":"view"},{"type":"function","name":"STATION_MANAGER_ROLE","inputs":[],"outputs":[{"name":"","type":"bytes32","internalType":"bytes32"}],"stateMutability":"view"},{"type":"function","name":"changeStorageDepositFee","inputs":[{"name":"newStorageDepositFee","type":"uint256","internalType":"uint256"}],"outputs":[],"stateMutability":"nonpayable"},{"type":"function","name":"checkStorageDepositFeeAddresses","inputs":[{"name":"addresses","type":"address[]","internalType":"address[]"}],"outputs":[{"name":"count","type":"uint256","internalType":"uint256"}],"stateMutability":"view"},{"type":"function","name":"deployMachineSmartAccount","inputs":[{"name":"machineOwner","type":"address","internalType":"address"},{"name":"nonce","type":"uint256","internalType":"uint256"},{"name":"signature","type":"bytes","internalType":"bytes"}],"outputs":[{"name":"","type":"address","internalType":"address"}],"stateMutability":"nonpayable"},{"type":"function","name":"eip712Domain","inputs":[],"outputs":[{"name":"fields","type":"bytes1","internalType":"bytes1"},{"name":"name","type":"string","internalType":"string"},{"name":"version","type":"string","internalType":"string"},{"name":"chainId","type":"uint256","internalType":"uint256"},{"name":"verifyingContract","type":"address","internalType":"address"},{"name":"salt","type":"bytes32","internalType":"bytes32"},{"name":"extensions","type":"uint256[]","internalType":"uint256[]"}],"stateMutability":"view"},{"type":"function","name":"executeMachineBatchTransactions","inputs":[{"name":"machineAddress","type":"address","internalType":"address"},{"name":"targets","type":"address[]","internalType":"address[]"},{"name":"data","type":"bytes[]","internalType":"bytes[]"},{"name":"nonce","type":"uint256","internalType":"uint256"},{"name":"signature","type":"bytes","internalType":"bytes"},{"name":"machineOwnerSignature","type":"bytes","internalType":"bytes"}],"outputs":[],"stateMutability":"nonpayable"},{"type":"function","name":"executeMachineTransaction","inputs":[{"name":"machineAddress","type":"address","internalType":"address"},{"name":"target","type":"address","internalType":"address"},{"name":"data","type":"bytes","internalType":"bytes"},{"name":"nonce","type":"uint256","internalType":"uint256"},{"name":"signature","type":"bytes","internalType":"bytes"},{"name":"machineOwnerSignature","type":"bytes","internalType":"bytes"}],"outputs":[],"stateMutability":"nonpayable"},{"type":"function","name":"executeMachineTransferBalance","inputs":[{"name":"machineAddress","type":"address","internalType":"address"},{"name":"recipientAddress","type":"address","internalType":"address"},{"name":"nonce","type":"uint256","internalType":"uint256"},{"name":"signature","type":"bytes","internalType":"bytes"},{"name":"machineOwnerSignature","type":"bytes","internalType":"bytes"}],"outputs":[],"stateMutability":"nonpayable"},{"type":"function","name":"executeTransaction","inputs":[{"name":"target","type":"address","internalType":"address"},{"name":"data","type":"bytes","internalType":"bytes"},{"name":"nonce","type":"uint256","internalType":"uint256"},{"name":"signature","type":"bytes","internalType":"bytes"}],"outputs":[],"stateMutability":"nonpayable"},{"type":"function","name":"getDomainSeparator","inputs":[],"outputs":[{"name":"","type":"bytes32","internalType":"bytes32"}],"stateMutability":"view"},{"type":"function","name":"getRoleAdmin","inputs":[{"name":"role","type":"bytes32","internalType":"bytes32"}],"outputs":[{"name":"","type":"bytes32","internalType":"bytes32"}],"stateMutability":"view"},{"type":"function","name":"grantRole","inputs":[{"name":"role","type":"bytes32","internalType":"bytes32"},{"name":"account","type":"address","internalType":"address"}],"outputs":[],"stateMutability":"nonpayable"},{"type":"function","name":"hasRole","inputs":[{"name":"role","type":"bytes32","internalType":"bytes32"},{"name":"account","type":"address","internalType":"address"}],"outputs":[{"name":"","type":"bool","internalType":"bool"}],"stateMutability":"view"},{"type":"function","name":"renounceRole","inputs":[{"name":"role","type":"bytes32","internalType":"bytes32"},{"name":"callerConfirmation","type":"address","internalType":"address"}],"outputs":[],"stateMutability":"nonpayable"},{"type":"function","name":"revokeRole","inputs":[{"name":"role","type":"bytes32","internalType":"bytes32"},{"name":"account","type":"address","internalType":"address"}],"outputs":[],"stateMutability":"nonpayable"},{"type":"function","name":"supportsInterface","inputs":[{"name":"interfaceId","type":"bytes4","internalType":"bytes4"}],"outputs":[{"name":"","type":"bool","internalType":"bool"}],"stateMutability":"view"},{"type":"function","name":"transferMachineStationBalance","inputs":[{"name":"newMachineStationAddress","type":"address","internalType":"address"},{"name":"nonce","type":"uint256","internalType":"uint256"},{"name":"signature","type":"bytes","internalType":"bytes"}],"outputs":[],"stateMutability":"nonpayable"},{"type":"event","name":"EIP712DomainChanged","inputs":[],"anonymous":false},{"type":"event","name":"MachineSmartAccountDeployed","inputs":[{"name":"deployedAddress","type":"address","indexed":true,"internalType":"address"}],"anonymous":false},{"type":"event","name":"MachineStationBalanceTransferred","inputs":[{"name":"oldMachineStation","type":"address","indexed":true,"internalType":"address"},{"name":"newMachineStation","type":"address","indexed":true,"internalType":"address"},{"name":"amount","type":"uint256","indexed":false,"internalType":"uint256"},{"name":"nonce","type":"uint256","indexed":false,"internalType":"uint256"}],"anonymous":false},{"type":"event","name":"OnFailbackCall","inputs":[],"anonymous":false},{"type":"event","name":"OnReceivedCall","inputs":[],"anonymous":false},{"type":"event","name":"RoleAdminChanged","inputs":[{"name":"role","type":"bytes32","indexed":true,"internalType":"bytes32"},{"name":"previousAdminRole","type":"bytes32","indexed":true,"internalType":"bytes32"},{"name":"newAdminRole","type":"bytes32","indexed":true,"internalType":"bytes32"}],"anonymous":false},{"type":"event","name":"RoleGranted","inputs":[{"name":"role","type":"bytes32","indexed":true,"internalType":"bytes32"},{"name":"account","type":"address","indexed":true,"internalType":"address"},{"name":"sender","type":"address","indexed":true,"internalType":"address"}],"anonymous":false},{"type":"event","name":"RoleRevoked","inputs":[{"name":"role","type":"bytes32","indexed":true,"internalType":"bytes32"},{"name":"account","type":"address","indexed":true,"internalType":"address"},{"name":"sender","type":"address","indexed":true,"internalType":"address"}],"anonymous":false},{"type":"event","name":"StorageDepositFeeChanged","inputs":[{"name":"newStorageDepositFee","type":"uint256","indexed":false,"internalType":"uint256"}],"anonymous":false},{"type":"event","name":"TransactionExecuted","inputs":[{"name":"target","type":"address","indexed":true,"internalType":"address"},{"name":"data","type":"bytes","indexed":false,"internalType":"bytes"},{"name":"nonce","type":"uint256","indexed":false,"internalType":"uint256"},{"name":"executor","type":"address","indexed":true,"internalType":"address"}],"anonymous":false},{"type":"error","name":"AccessControlBadConfirmation","inputs":[]},{"type":"error","name":"AccessControlUnauthorizedAccount","inputs":[{"name":"account","type":"address","internalType":"address"},{"name":"neededRole","type":"bytes32","internalType":"bytes32"}]},{"type":"error","name":"ECDSAInvalidSignature","inputs":[]},{"type":"error","name":"ECDSAInvalidSignatureLength","inputs":[{"name":"length","type":"uint256","internalType":"uint256"}]},{"type":"error","name":"ECDSAInvalidSignatureS","inputs":[{"name":"s","type":"bytes32","internalType":"bytes32"}]},{"type":"error","name":"InvalidOwnerSignature","inputs":[{"name":"messageHash","type":"bytes32","internalType":"bytes32"},{"name":"nonce","type":"uint256","internalType":"uint256"}]},{"type":"error","name":"InvalidShortString","inputs":[]},{"type":"error","name":"NonceAlreadyUsed","inputs":[{"name":"nonce","type":"uint256","internalType":"uint256"}]},{"type":"error","name":"SafeERC20FailedOperation","inputs":[{"name":"token","type":"address","internalType":"address"}]},{"type":"error","name":"StringTooLong","inputs":[{"name":"str","type":"string","internalType":"string"}]},{"type":"error","name":"TargetCallFailed","inputs":[{"name":"target","type":"address","internalType":"address"}]},{"type":"error","name":"ZeroAddress","inputs":[]}],"bytecode":{"object":"0x610160604052670494654067e1000060045534801561001d57600080fd5b506040516149a43803806149a483398101604081905261003c9161035a565b604080518082018252601581527f4d616368696e6553746174696f6e466163746f72790000000000000000000000602080830191909152825180840190935260018352603160f81b9083015290610094826000610216565b610120526100a3816001610216565b61014052815160208084019190912060e052815190820120610100524660a05261013060e05161010051604080517f8b73c3c69bb8fe3d512ecc4cf759cc79239f7b179b0ffacaa9a75d522b39400f60208201529081019290925260608201524660808201523060a082015260009060c00160405160208183030381529060405280519060200120905090565b60805250503060c0526001600160a01b0382166101605760405163d92e233d60e01b815260040160405180910390fd5b6001600160a01b0381166101875760405163d92e233d60e01b815260040160405180910390fd5b610192600083610249565b506101bd7fba272f7c1126fd55bcfa14f28b454a38c350674073ade218b9dfdce40c1d019482610249565b506101d8600080516020614984833981519152610800610249565b506101f3600080516020614984833981519152610802610249565b5061020e600080516020614984833981519152610801610249565b505050610560565b60006020835110156102325761022b836102f7565b9050610243565b8161023d848261042e565b5060ff90505b92915050565b60008281526002602090815260408083206001600160a01b038516845290915281205460ff166102ef5760008381526002602090815260408083206001600160a01b03861684529091529020805460ff191660011790556102a73390565b6001600160a01b0316826001600160a01b0316847f2f8788117e7eff1d82e926ec794901d17c78024a50270940304540a733656f0d60405160405180910390a4506001610243565b506000610243565b600080829050601f8151111561032b578260405163305a27a960e01b815260040161032291906104ed565b60405180910390fd5b80516103368261053c565b179392505050565b80516001600160a01b038116811461035557600080fd5b919050565b6000806040838503121561036d57600080fd5b6103768361033e565b91506103846020840161033e565b90509250929050565b634e487b7160e01b600052604160045260246000fd5b600181811c908216806103b757607f821691505b6020821081036103d757634e487b7160e01b600052602260045260246000fd5b50919050565b601f821115610429576000816000526020600020601f850160051c810160208610156104065750805b601f850160051c820191505b8181101561042557828155600101610412565b5050505b505050565b81516001600160401b038111156104475761044761038d565b61045b8161045584546103a3565b846103dd565b602080601f83116001811461049057600084156104785750858301515b600019600386901b1c1916600185901b178555610425565b600085815260208120601f198616915b828110156104bf578886015182559484019460019091019084016104a0565b50858210156104dd5787850151600019600388901b60f8161c191681555b5050505050600190811b01905550565b60006020808352835180602085015260005b8181101561051b578581018301518582016040015282016104ff565b506000604082860101526040601f19601f8301168501019250505092915050565b805160208083015191908110156103d75760001960209190910360031b1b16919050565b60805160a05160c05160e0516101005161012051610140516143ca6105ba60003960006116b501526000611688015260006117b50152600061178d015260006116e8015260006117120152600061173c01526143ca6000f3fe6080604052600436106101185760003560e01c806371c925c3116100a0578063a217fddf11610064578063a217fddf1461039d578063d547741f146103b2578063ed00dcb5146103d2578063ed24911d146103f2578063f38459eb1461040757610148565b806371c925c3146102f357806379a2cd4f1461031557806384b0196e1461033557806391d148541461035d578063a13219061461037d57610148565b806336568abe116100e757806336568abe14610228578063471e60b714610248578063490faada146102805780634b590ceb146102b357806350cd07f6146102d357610148565b806301ffc9a71461017357806306c90d7b146101a8578063248a9ca3146101ca5780632f2ff15d1461020857610148565b36610148576040517fdd3c646f071b41da826ff81c94dc1b875023e92d79bc1be9595ba9e8f62e41f590600090a1005b6040517f3dc49a9ff525948491d546d36f1f8f4a5e8c1061519701a9ea138fe2c3cb1a4390600090a1005b34801561017f57600080fd5b5061019361018e366004611bff565b610427565b60405190151581526020015b60405180910390f35b3480156101b457600080fd5b506101c86101c3366004611c95565b61045e565b005b3480156101d657600080fd5b506101fa6101e5366004611d5c565b60009081526002602052604090206001015490565b60405190815260200161019f565b34801561021457600080fd5b506101c8610223366004611d75565b61073d565b34801561023457600080fd5b506101c8610243366004611d75565b610768565b34801561025457600080fd5b50610268610263366004611da1565b6107a0565b6040516001600160a01b03909116815260200161019f565b34801561028c57600080fd5b506101fa7e3e1d629c42fadb08d65dad7500c211ed988ea4560b14fca6d4aea74d8c3a1181565b3480156102bf57600080fd5b506101fa6102ce366004611eb6565b610948565b3480156102df57600080fd5b506101c86102ee366004611d5c565b6109b8565b3480156102ff57600080fd5b506101fa60008051602061437583398151915281565b34801561032157600080fd5b506101c8610330366004611f38565b610a0c565b34801561034157600080fd5b5061034a610ce3565b60405161019f9796959493929190611ff0565b34801561036957600080fd5b50610193610378366004611d75565b610d29565b34801561038957600080fd5b506101c8610398366004612089565b610d54565b3480156103a957600080fd5b506101fa600081565b3480156103be57600080fd5b506101c86103cd366004611d75565b610f47565b3480156103de57600080fd5b506101c86103ed366004612124565b610f6c565b3480156103fe57600080fd5b506101fa6111c7565b34801561041357600080fd5b506101c8610422366004611da1565b6111d6565b60006001600160e01b03198216637965db0b60e01b148061045857506301ffc9a760e01b6001600160e01b03198316145b92915050565b600080516020614375833981519152610476816113db565b6001600160a01b038a1661049d5760405163d92e233d60e01b815260040160405180910390fd5b6001600160a01b0389166104c45760405163d92e233d60e01b815260040160405180910390fd5b60008681526003602052604090205460ff16156104fc57604051632472ad4160e21b8152600481018790526024015b60405180910390fd5b60007f90e38a06e0fbef4f398e1c2f195324b0a08b93b67ac0ff9ed53bb4ec857d475d8b8b8b8b6040516105319291906121ae565b6040805191829003822060208301959095526001600160a01b039384169082015291166060820152608081019190915260a0810188905260c0016040516020818303038152906040528051906020012090506105c58187878080601f0160208091040260200160405190810160405280939291908181526020018383808284376000920191909152508c92506113e8915050565b6105ec57604051633625d6bb60e01b815260048101829052602481018890526044016104f3565b6000878152600360205260409020805460ff1916600117905561062e7e3e1d629c42fadb08d65dad7500c211ed988ea4560b14fca6d4aea74d8c3a118b610d29565b156106c8576040516370a0823160e01b81526001600160a01b038c166004820152600090610809906370a0823190602401602060405180830381865afa15801561067c573d6000803e3d6000fd5b505050506040513d601f19601f820116820180604052508101906106a091906121be565b9050670494654067e1000081116106c6576106c66108098d670de0b6b3a764000061144b565b505b604051630d88b34560e31b81526001600160a01b038c1690636c459a28906106fe908d908d908d908d908b908b90600401612200565b600060405180830381600087803b15801561071857600080fd5b505af115801561072c573d6000803e3d6000fd5b505050505050505050505050505050565b600082815260026020526040902060010154610758816113db565b610762838361149d565b50505050565b6001600160a01b03811633146107915760405163334bd91960e11b815260040160405180910390fd5b61079b8282611531565b505050565b60006000805160206143758339815191526107ba816113db565b6001600160a01b0386166107e15760405163d92e233d60e01b815260040160405180910390fd5b604080517fcb883d475dccf01f51b65f8b39268d178457d3fddf68741f0d23b23b9667f08960208201526001600160a01b03881691810191909152606081018690526000906080016040516020818303038152906040528051906020012090506108838186868080601f0160208091040260200160405190810160405280939291908181526020018383808284376000920191909152508b92506113e8915050565b6108aa57604051633625d6bb60e01b815260048101829052602481018790526044016104f3565b600086815260036020526040808220805460ff1916600117905551889030906108d290611bf2565b6001600160a01b03928316815291166020820152604001604051809103906000f080158015610905573d6000803e3d6000fd5b506040519091506001600160a01b038216907f437b0f498ec98a9c0806db0a647e9a775919e80cdaff191d79b0e1058642d3c990600090a2979650505050505050565b6000805b82518110156109b2576109977e3e1d629c42fadb08d65dad7500c211ed988ea4560b14fca6d4aea74d8c3a1184838151811061098a5761098a61224b565b6020026020010151610d29565b156109aa57816109a681612277565b9250505b60010161094c565b50919050565b6000805160206143758339815191526109d0816113db565b60048290556040518281527fd5158900c7858e856f60a749e88647e389dfaf04256e139fc6109740bde6a9989060200160405180910390a15050565b600080516020614375833981519152610a24816113db565b6001600160a01b038a16610a4b5760405163d92e233d60e01b815260040160405180910390fd5b600189511015610a6e5760405163d92e233d60e01b815260040160405180910390fd5b60008681526003602052604090205460ff1615610aa157604051632472ad4160e21b8152600481018790526024016104f3565b60007fe9f484536292dd12b1e4931d357bf050d3c918ba159be58ce86ada0c36f566d78b8b604051602001610ad69190612290565b60405160208183030381529060405280519060200120610af68c8c61159e565b6040805160208101959095526001600160a01b03909316928401929092526060830152608082015260a0810188905260c001604051602081830303815290604052805190602001209050610b828187878080601f0160208091040260200160405190810160405280939291908181526020018383808284376000920191909152508c92506113e8915050565b610ba957604051633625d6bb60e01b815260048101829052602481018890526044016104f3565b6000878152600360205260408120805460ff19166001179055610bcb8b610948565b90508015610c6d57600060045482610be391906122cf565b6040516370a0823160e01b81526001600160a01b038f166004820152909150600090610809906370a0823190602401602060405180830381865afa158015610c2f573d6000803e3d6000fd5b505050506040513d601f19601f82011682018060405250810190610c5391906121be565b905081811015610c6a57610c6a6108098f8461144b565b50505b604051637b063e8f60e01b81526001600160a01b038d1690637b063e8f90610ca3908e908e908e908e908c908c906004016122e6565b600060405180830381600087803b158015610cbd57600080fd5b505af1158015610cd1573d6000803e3d6000fd5b50505050505050505050505050505050565b600060608060008060006060610cf7611681565b610cff6116ae565b60408051600080825260208201909252600f60f81b9b939a50919850469750309650945092509050565b60009182526002602090815260408084206001600160a01b0393909316845291905290205460ff1690565b600080516020614375833981519152610d6c816113db565b6001600160a01b038816610d935760405163d92e233d60e01b815260040160405180910390fd5b6001600160a01b038716610dba5760405163d92e233d60e01b815260040160405180910390fd5b60008681526003602052604090205460ff1615610ded57604051632472ad4160e21b8152600481018790526024016104f3565b604080517f697034aac2a7a1f33a41731a5606341564e2b5afb05f29ad63707a05365d441060208201526001600160a01b03808b169282019290925290881660608201526080810187905260009060a001604051602081830303815290604052805190602001209050610e988187878080601f0160208091040260200160405190810160405280939291908181526020018383808284376000920191909152508c92506113e8915050565b610ebf57604051633625d6bb60e01b815260048101829052602481018890526044016104f3565b60008781526003602052604090819020805460ff19166001179055516344f22f2160e01b81526001600160a01b038a16906344f22f2190610f0a908b908b90899089906004016123e0565b600060405180830381600087803b158015610f2457600080fd5b505af1158015610f38573d6000803e3d6000fd5b50505050505050505050505050565b600082815260026020526040902060010154610f62816113db565b6107628383611531565b600080516020614375833981519152610f84816113db565b6001600160a01b038716610fab5760405163d92e233d60e01b815260040160405180910390fd5b60008481526003602052604090205460ff1615610fde57604051632472ad4160e21b8152600481018590526024016104f3565b60007f9b32e4d070363cb19be3cb3fd56e8ded5ecf343731510315eb777279bf0bb88f8888886040516110129291906121ae565b60405190819003812061104a93929189906020019384526001600160a01b039290921660208401526040830152606082015260800190565b6040516020818303038152906040528051906020012090506110a48185858080601f0160208091040260200160405190810160405280939291908181526020018383808284376000920191909152508a92506113e8915050565b6110cb57604051633625d6bb60e01b815260048101829052602481018690526044016104f3565b600085815260036020526040808220805460ff19166001179055516001600160a01b038a16906110fe908a908a906121ae565b6000604051808303816000865af19150503d806000811461113b576040519150601f19603f3d011682016040523d82523d6000602084013e611140565b606091505b505090508061116d57604051636515b5e360e11b81526001600160a01b038a1660048201526024016104f3565b336001600160a01b0316896001600160a01b03167fe9200e38f15edd38df305303c1b8a3ddcf792f530857fa4304c56918923688b48a8a8a6040516111b493929190612408565b60405180910390a3505050505050505050565b60006111d16116db565b905090565b60006111e1816113db565b6001600160a01b0385166112085760405163d92e233d60e01b815260040160405180910390fd5b60008481526003602052604090205460ff161561123b57604051632472ad4160e21b8152600481018590526024016104f3565b604080517fb754af7fdd46b6fc55b711af63d7b59453c35e3d1908dffba9481079276ce15760208201526001600160a01b03871691810191909152606081018590526000906080016040516020818303038152906040528051906020012090506112dd8185858080601f0160208091040260200160405190810160405280939291908181526020018383808284376000920191909152508a92506113e8915050565b61130457604051633625d6bb60e01b815260048101829052602481018690526044016104f3565b600085815260036020526040808220805460ff19166001179055516370a0823160e01b8152306004820152610809906370a0823190602401602060405180830381865afa158015611359573d6000803e3d6000fd5b505050506040513d601f19601f8201168201806040525081019061137d91906121be565b905061138c610809888361144b565b60408051828152602081018890526001600160a01b0389169130917fbe575ac7be9393c7e92e96432563d13256bfff696a7260480bebb40dfeecb65c910160405180910390a350505050505050565b6113e58133611806565b50565b60008181526003602052604081205460ff161561141b57604051632472ad4160e21b8152600481018390526024016104f3565b600061142685611843565b905060006114348286611870565b9050611441600082610d29565b9695505050505050565b604080516001600160a01b038416602482015260448082018490528251808303909101815260649091019091526020810180516001600160e01b031663a9059cbb60e01b17905261079b90849061189a565b60006114a98383610d29565b6115295760008381526002602090815260408083206001600160a01b03861684529091529020805460ff191660011790556114e13390565b6001600160a01b0316826001600160a01b0316847f2f8788117e7eff1d82e926ec794901d17c78024a50270940304540a733656f0d60405160405180910390a4506001610458565b506000610458565b600061153d8383610d29565b156115295760008381526002602090815260408083206001600160a01b0386168085529252808320805460ff1916905551339286917ff6391f5c32d9c69d2a47ea670b442974b53935d1edc7fd64eb21e047a839171b9190a4506001610458565b6000808267ffffffffffffffff8111156115ba576115ba611dfb565b6040519080825280602002602001820160405280156115e3578160200160208202803683370190505b50905060005b83811015611650578484828181106116035761160361224b565b9050602002810190611615919061242c565b6040516116239291906121ae565b604051809103902082828151811061163d5761163d61224b565b60209081029190910101526001016115e9565b50806040516020016116629190612473565b6040516020818303038152906040528051906020012091505092915050565b60606111d17f0000000000000000000000000000000000000000000000000000000000000000600061190b565b60606111d17f0000000000000000000000000000000000000000000000000000000000000000600161190b565b6000306001600160a01b037f00000000000000000000000000000000000000000000000000000000000000001614801561173457507f000000000000000000000000000000000000000000000000000000000000000046145b1561175e57507f000000000000000000000000000000000000000000000000000000000000000090565b6111d1604080517f8b73c3c69bb8fe3d512ecc4cf759cc79239f7b179b0ffacaa9a75d522b39400f60208201527f0000000000000000000000000000000000000000000000000000000000000000918101919091527f000000000000000000000000000000000000000000000000000000000000000060608201524660808201523060a082015260009060c00160405160208183030381529060405280519060200120905090565b6118108282610d29565b61183f5760405163e2517d3f60e01b81526001600160a01b0382166004820152602481018390526044016104f3565b5050565b60006104586118506116db565b8360405161190160f01b8152600281019290925260228201526042902090565b60008060008061188086866119b6565b9250925092506118908282611a03565b5090949350505050565b600080602060008451602086016000885af1806118bd576040513d6000823e3d81fd5b50506000513d915081156118d55780600114156118e2565b6001600160a01b0384163b155b1561076257604051635274afe760e01b81526001600160a01b03851660048201526024016104f3565b606060ff83146119255761191e83611abc565b9050610458565b8180546119319061249d565b80601f016020809104026020016040519081016040528092919081815260200182805461195d9061249d565b80156119aa5780601f1061197f576101008083540402835291602001916119aa565b820191906000526020600020905b81548152906001019060200180831161198d57829003601f168201915b50505050509050610458565b600080600083516041036119f05760208401516040850151606086015160001a6119e288828585611afb565b9550955095505050506119fc565b50508151600091506002905b9250925092565b6000826003811115611a1757611a176124d1565b03611a20575050565b6001826003811115611a3457611a346124d1565b03611a525760405163f645eedf60e01b815260040160405180910390fd5b6002826003811115611a6657611a666124d1565b03611a875760405163fce698f760e01b8152600481018290526024016104f3565b6003826003811115611a9b57611a9b6124d1565b0361183f576040516335e2f38360e21b8152600481018290526024016104f3565b60606000611ac983611bca565b604080516020808252818301909252919250600091906020820181803683375050509182525060208101929092525090565b600080807f7fffffffffffffffffffffffffffffff5d576e7357a4501ddfe92f46681b20a0841115611b365750600091506003905082611bc0565b604080516000808252602082018084528a905260ff891692820192909252606081018790526080810186905260019060a0016020604051602081039080840390855afa158015611b8a573d6000803e3d6000fd5b5050604051601f1901519150506001600160a01b038116611bb657506000925060019150829050611bc0565b9250600091508190505b9450945094915050565b600060ff8216601f81111561045857604051632cd44ac360e21b815260040160405180910390fd5b611e8d806124e883390190565b600060208284031215611c1157600080fd5b81356001600160e01b031981168114611c2957600080fd5b9392505050565b80356001600160a01b0381168114611c4757600080fd5b919050565b60008083601f840112611c5e57600080fd5b50813567ffffffffffffffff811115611c7657600080fd5b602083019150836020828501011115611c8e57600080fd5b9250929050565b600080600080600080600080600060c08a8c031215611cb357600080fd5b611cbc8a611c30565b9850611cca60208b01611c30565b975060408a013567ffffffffffffffff80821115611ce757600080fd5b611cf38d838e01611c4c565b909950975060608c0135965060808c0135915080821115611d1357600080fd5b611d1f8d838e01611c4c565b909650945060a08c0135915080821115611d3857600080fd5b50611d458c828d01611c4c565b915080935050809150509295985092959850929598565b600060208284031215611d6e57600080fd5b5035919050565b60008060408385031215611d8857600080fd5b82359150611d9860208401611c30565b90509250929050565b60008060008060608587031215611db757600080fd5b611dc085611c30565b935060208501359250604085013567ffffffffffffffff811115611de357600080fd5b611def87828801611c4c565b95989497509550505050565b634e487b7160e01b600052604160045260246000fd5b600082601f830112611e2257600080fd5b8135602067ffffffffffffffff80831115611e3f57611e3f611dfb565b8260051b604051601f19603f83011681018181108482111715611e6457611e64611dfb565b6040529384526020818701810194908101925087851115611e8457600080fd5b6020870191505b84821015611eab57611e9c82611c30565b83529183019190830190611e8b565b979650505050505050565b600060208284031215611ec857600080fd5b813567ffffffffffffffff811115611edf57600080fd5b611eeb84828501611e11565b949350505050565b60008083601f840112611f0557600080fd5b50813567ffffffffffffffff811115611f1d57600080fd5b6020830191508360208260051b8501011115611c8e57600080fd5b600080600080600080600080600060c08a8c031215611f5657600080fd5b611f5f8a611c30565b985060208a013567ffffffffffffffff80821115611f7c57600080fd5b611f888d838e01611e11565b995060408c0135915080821115611f9e57600080fd5b611cf38d838e01611ef3565b6000815180845260005b81811015611fd057602081850181015186830182015201611fb4565b506000602082860101526020601f19601f83011685010191505092915050565b60ff60f81b881681526000602060e0602084015261201160e084018a611faa565b8381036040850152612023818a611faa565b606085018990526001600160a01b038816608086015260a0850187905284810360c08601528551808252602080880193509091019060005b818110156120775783518352928401929184019160010161205b565b50909c9b505050505050505050505050565b600080600080600080600060a0888a0312156120a457600080fd5b6120ad88611c30565b96506120bb60208901611c30565b955060408801359450606088013567ffffffffffffffff808211156120df57600080fd5b6120eb8b838c01611c4c565b909650945060808a013591508082111561210457600080fd5b506121118a828b01611c4c565b989b979a50959850939692959293505050565b6000806000806000806080878903121561213d57600080fd5b61214687611c30565b9550602087013567ffffffffffffffff8082111561216357600080fd5b61216f8a838b01611c4c565b909750955060408901359450606089013591508082111561218f57600080fd5b5061219c89828a01611c4c565b979a9699509497509295939492505050565b8183823760009101908152919050565b6000602082840312156121d057600080fd5b5051919050565b81835281816020850137506000828201602090810191909152601f909101601f19169091010190565b6001600160a01b038716815260806020820181905260009061222590830187896121d7565b856040840152828103606084015261223e8185876121d7565b9998505050505050505050565b634e487b7160e01b600052603260045260246000fd5b634e487b7160e01b600052601160045260246000fd5b60006001820161228957612289612261565b5060010190565b815160009082906020808601845b838110156122c35781516001600160a01b03168552938201939082019060010161229e565b50929695505050505050565b808202811582820484141761045857610458612261565b6080808252875190820181905260009060209060a0840190828b01845b828110156123285781516001600160a01b031684529284019290840190600101612303565b50505083810382850152878152818101600589901b820183018a60005b8b8110156123b557848303601f190184528135368e9003601e1901811261236b57600080fd5b8d01868101903567ffffffffffffffff81111561238757600080fd5b80360382131561239657600080fd5b6123a18582846121d7565b958801959450505090850190600101612345565b505088604087015285810360608701526123d081888a6121d7565b9c9b505050505050505050505050565b60018060a01b03851681528360208201526060604082015260006114416060830184866121d7565b60408152600061241c6040830185876121d7565b9050826020830152949350505050565b6000808335601e1984360301811261244357600080fd5b83018035915067ffffffffffffffff82111561245e57600080fd5b602001915036819003821315611c8e57600080fd5b815160009082906020808601845b838110156122c357815185529382019390820190600101612481565b600181811c908216806124b157607f821691505b6020821081036109b257634e487b7160e01b600052602260045260246000fd5b634e487b7160e01b600052602160045260246000fdfe61016060405234801561001157600080fd5b50604051611e8d380380611e8d83398101604081905261003091610318565b604080518082018252601381527f4d616368696e65536d6172744163636f756e7400000000000000000000000000602080830191909152825180840190935260018352603160f81b90830152906100888260006101d4565b610120526100978160016101d4565b61014052815160208084019190912060e052815190820120610100524660a05261012460e05161010051604080517f8b73c3c69bb8fe3d512ecc4cf759cc79239f7b179b0ffacaa9a75d522b39400f60208201529081019290925260608201524660808201523060a082015260009060c00160405160208183030381529060405280519060200120905090565b60805250503060c0526001600160a01b0382166101545760405163d92e233d60e01b815260040160405180910390fd5b6001600160a01b03811661017b5760405163d92e233d60e01b815260040160405180910390fd5b600380546001600160a01b0319166001600160a01b0384161790556101a1600082610207565b506101cc7f71d98c4c57ac41ab6c267d775dd524f57f99d0415ec2bcc47d70d31c0efd17b182610207565b50505061051e565b60006020835110156101f0576101e9836102b5565b9050610201565b816101fb84826103ec565b5060ff90505b92915050565b60008281526002602090815260408083206001600160a01b038516845290915281205460ff166102ad5760008381526002602090815260408083206001600160a01b03861684529091529020805460ff191660011790556102653390565b6001600160a01b0316826001600160a01b0316847f2f8788117e7eff1d82e926ec794901d17c78024a50270940304540a733656f0d60405160405180910390a4506001610201565b506000610201565b600080829050601f815111156102e9578260405163305a27a960e01b81526004016102e091906104ab565b60405180910390fd5b80516102f4826104fa565b179392505050565b80516001600160a01b038116811461031357600080fd5b919050565b6000806040838503121561032b57600080fd5b610334836102fc565b9150610342602084016102fc565b90509250929050565b634e487b7160e01b600052604160045260246000fd5b600181811c9082168061037557607f821691505b60208210810361039557634e487b7160e01b600052602260045260246000fd5b50919050565b601f8211156103e7576000816000526020600020601f850160051c810160208610156103c45750805b601f850160051c820191505b818110156103e3578281556001016103d0565b5050505b505050565b81516001600160401b038111156104055761040561034b565b610419816104138454610361565b8461039b565b602080601f83116001811461044e57600084156104365750858301515b600019600386901b1c1916600185901b1785556103e3565b600085815260208120601f198616915b8281101561047d5788860151825594840194600190910190840161045e565b508582101561049b5787850151600019600388901b60f8161c191681555b5050505050600190811b01905550565b60006020808352835180602085015260005b818110156104d9578581018301518582016040015282016104bd565b506000604082860101526040601f19601f8301168501019250505092915050565b805160208083015191908110156103955760001960209190910360031b1b16919050565b60805160a05160c05160e0516101005161012051610140516119156105786000396000610dfe01526000610dd101526000610efe01526000610ed601526000610e3101526000610e5b01526000610e8501526119156000f3fe608060405234801561001057600080fd5b50600436106101005760003560e01c80637b063e8f11610097578063a217fddf11610066578063a217fddf1461024e578063d547741f14610256578063ed24911d14610269578063fb6a9dec1461027157600080fd5b80637b063e8f146101e257806384b0196e146101f55780638da5cb5b1461021057806391d148541461023b57600080fd5b806344f22f21116100d357806344f22f2114610186578063636cbe46146101995780636717e41c146101ac5780636c459a28146101cf57600080fd5b806301ffc9a714610105578063248a9ca31461012d5780632f2ff15d1461015e57806336568abe14610173575b600080fd5b6101186101133660046112e4565b610286565b60405190151581526020015b60405180910390f35b61015061013b366004611315565b60009081526002602052604090206001015490565b604051908152602001610124565b61017161016c36600461134a565b6102bd565b005b61017161018136600461134a565b6102e8565b6101716101943660046113bf565b610320565b6101186101a7366004611460565b61053b565b6101186101ba366004611315565b60046020526000908152604090205460ff1681565b6101716101dd366004611508565b6105a2565b6101716101f03660046115d7565b6107fe565b6101fd610a8b565b60405161012497969594939291906116e7565b600354610223906001600160a01b031681565b6040516001600160a01b039091168152602001610124565b61011861024936600461134a565b610ad1565b610150600081565b61017161026436600461134a565b610afc565b610150610b21565b6101506000805160206118c083398151915281565b60006001600160e01b03198216637965db0b60e01b14806102b757506301ffc9a760e01b6001600160e01b03198316145b92915050565b6000828152600260205260409020600101546102d881610b30565b6102e28383610b3d565b50505050565b6001600160a01b03811633146103115760405163334bd91960e11b815260040160405180910390fd5b61031b8282610bd1565b505050565b6000805160206118c083398151915261033881610b30565b6001600160a01b03851661035f5760405163d92e233d60e01b815260040160405180910390fd5b60008481526004602052604090205460ff161561039757604051632472ad4160e21b8152600481018590526024015b60405180910390fd5b604080517f60ae25e845e8a72489f31d7ae79be37e761d197498dd68de7f7c02dfe585a08e60208201526001600160a01b03871691810191909152606081018590526000906080016040516020818303038152906040528051906020012090506104398185858080601f0160208091040260200160405190810160405280939291908181526020018383808284376000920191909152508a925061053b915050565b61046057604051633b66eae960e21b8152600481018290526024810186905260440161038e565b6000858152600460208190526040808320805460ff19166001179055516370a0823160e01b81523091810191909152610809906370a0823190602401602060405180830381865afa1580156104b9573d6000803e3d6000fd5b505050506040513d601f19601f820116820180604052508101906104dd9190611780565b90506104ec6108098883610c3e565b60408051828152602081018890526001600160a01b0389169130917fe4506670db3a18facacc640ffa234ff9a722f01542a25fd235ffa83b394ee713910160405180910390a350505050505050565b60008181526004602052604081205460ff161561056e57604051632472ad4160e21b81526004810183905260240161038e565b600061057985610c90565b905060006105878286610cbd565b6003546001600160a01b039081169116149695505050505050565b6105ba6000805160206118c083398151915233610ad1565b1580156105d257506003546001600160a01b03163314155b156105f257604051634a0bfec160e01b815233600482015260240161038e565b60008381526004602052604090205460ff161561062557604051632472ad4160e21b81526004810184905260240161038e565b60007f1ff1e0e2a8ecfc4e51458a32b21d4053e7cc8220f6b9c2e72223c2169d70df88878787604051610659929190611799565b60405190819003812061069193929188906020019384526001600160a01b039290921660208401526040830152606082015260800190565b6040516020818303038152906040528051906020012090506106eb8184848080601f01602080910402602001604051908101604052809392919081815260200183838082843760009201919091525089925061053b915050565b61071257604051633b66eae960e21b8152600481018290526024810185905260440161038e565b600084815260046020526040808220805460ff19166001179055516001600160a01b038916906107459089908990611799565b6000604051808303816000865af19150503d8060008114610782576040519150601f19603f3d011682016040523d82523d6000602084013e610787565b606091505b50509050806107b457604051636515b5e360e11b81526001600160a01b038916600482015260240161038e565b6040516001600160a01b0389168152309033907fb8a1f97c3aadecf502b8d6cfb8ef2741544cb95b7dfc786e004f532db2752c249060200160405180910390a35050505050505050565b6108166000805160206118c083398151915233610ad1565b15801561082e57506003546001600160a01b03163314155b1561084e57604051634a0bfec160e01b815233600482015260240161038e565b60008381526004602052604090205460ff161561088157604051632472ad4160e21b81526004810184905260240161038e565b600061088d8686610ce7565b905060007fb5a77f2236108db8ee3721e29cb2de5c7ac280c84df715e06f3faf11ba2bf723886040516020016108c391906117a9565b60408051601f19818403018152828252805160209182012090830193909352810191909152606081018390526080810186905260a0016040516020818303038152906040528051906020012090506109538185858080601f0160208091040260200160405190810160405280939291908181526020018383808284376000920191909152508a925061053b915050565b61097a57604051633b66eae960e21b8152600481018290526024810186905260440161038e565b6000858152600460205260408120805460ff191660011790555b8851811015610a805760008982815181106109b1576109b16117e8565b60200260200101516001600160a01b03168989848181106109d4576109d46117e8565b90506020028101906109e691906117fe565b6040516109f4929190611799565b6000604051808303816000865af19150503d8060008114610a31576040519150601f19603f3d011682016040523d82523d6000602084013e610a36565b606091505b505060408051848152821515602082015291925030917f55fbc4af9054883bbf9a45d08a8bcac93017032109539cfe6bebe9180238cce7910160405180910390a250600101610994565b505050505050505050565b600060608060008060006060610a9f610dca565b610aa7610df7565b60408051600080825260208201909252600f60f81b9b939a50919850469750309650945092509050565b60009182526002602090815260408084206001600160a01b0393909316845291905290205460ff1690565b600082815260026020526040902060010154610b1781610b30565b6102e28383610bd1565b6000610b2b610e24565b905090565b610b3a8133610f4f565b50565b6000610b498383610ad1565b610bc95760008381526002602090815260408083206001600160a01b03861684529091529020805460ff19166001179055610b813390565b6001600160a01b0316826001600160a01b0316847f2f8788117e7eff1d82e926ec794901d17c78024a50270940304540a733656f0d60405160405180910390a45060016102b7565b5060006102b7565b6000610bdd8383610ad1565b15610bc95760008381526002602090815260408083206001600160a01b0386168085529252808320805460ff1916905551339286917ff6391f5c32d9c69d2a47ea670b442974b53935d1edc7fd64eb21e047a839171b9190a45060016102b7565b604080516001600160a01b038416602482015260448082018490528251808303909101815260649091019091526020810180516001600160e01b031663a9059cbb60e01b17905261031b908490610f8c565b60006102b7610c9d610e24565b8360405161190160f01b8152600281019290925260228201526042902090565b600080600080610ccd8686610ffd565b925092509250610cdd828261104a565b5090949350505050565b6000808267ffffffffffffffff811115610d0357610d03611419565b604051908082528060200260200182016040528015610d2c578160200160208202803683370190505b50905060005b83811015610d9957848482818110610d4c57610d4c6117e8565b9050602002810190610d5e91906117fe565b604051610d6c929190611799565b6040518091039020828281518110610d8657610d866117e8565b6020908102919091010152600101610d32565b5080604051602001610dab9190611845565b6040516020818303038152906040528051906020012091505092915050565b6060610b2b7f00000000000000000000000000000000000000000000000000000000000000006000611103565b6060610b2b7f00000000000000000000000000000000000000000000000000000000000000006001611103565b6000306001600160a01b037f000000000000000000000000000000000000000000000000000000000000000016148015610e7d57507f000000000000000000000000000000000000000000000000000000000000000046145b15610ea757507f000000000000000000000000000000000000000000000000000000000000000090565b610b2b604080517f8b73c3c69bb8fe3d512ecc4cf759cc79239f7b179b0ffacaa9a75d522b39400f60208201527f0000000000000000000000000000000000000000000000000000000000000000918101919091527f000000000000000000000000000000000000000000000000000000000000000060608201524660808201523060a082015260009060c00160405160208183030381529060405280519060200120905090565b610f598282610ad1565b610f885760405163e2517d3f60e01b81526001600160a01b03821660048201526024810183905260440161038e565b5050565b600080602060008451602086016000885af180610faf576040513d6000823e3d81fd5b50506000513d91508115610fc7578060011415610fd4565b6001600160a01b0384163b155b156102e257604051635274afe760e01b81526001600160a01b038516600482015260240161038e565b600080600083516041036110375760208401516040850151606086015160001a611029888285856111ae565b955095509550505050611043565b50508151600091506002905b9250925092565b600082600381111561105e5761105e61186f565b03611067575050565b600182600381111561107b5761107b61186f565b036110995760405163f645eedf60e01b815260040160405180910390fd5b60028260038111156110ad576110ad61186f565b036110ce5760405163fce698f760e01b81526004810182905260240161038e565b60038260038111156110e2576110e261186f565b03610f88576040516335e2f38360e21b81526004810182905260240161038e565b606060ff831461111d576111168361127d565b90506102b7565b81805461112990611885565b80601f016020809104026020016040519081016040528092919081815260200182805461115590611885565b80156111a25780601f10611177576101008083540402835291602001916111a2565b820191906000526020600020905b81548152906001019060200180831161118557829003601f168201915b505050505090506102b7565b600080807f7fffffffffffffffffffffffffffffff5d576e7357a4501ddfe92f46681b20a08411156111e95750600091506003905082611273565b604080516000808252602082018084528a905260ff891692820192909252606081018790526080810186905260019060a0016020604051602081039080840390855afa15801561123d573d6000803e3d6000fd5b5050604051601f1901519150506001600160a01b03811661126957506000925060019150829050611273565b9250600091508190505b9450945094915050565b6060600061128a836112bc565b604080516020808252818301909252919250600091906020820181803683375050509182525060208101929092525090565b600060ff8216601f8111156102b757604051632cd44ac360e21b815260040160405180910390fd5b6000602082840312156112f657600080fd5b81356001600160e01b03198116811461130e57600080fd5b9392505050565b60006020828403121561132757600080fd5b5035919050565b80356001600160a01b038116811461134557600080fd5b919050565b6000806040838503121561135d57600080fd5b8235915061136d6020840161132e565b90509250929050565b60008083601f84011261138857600080fd5b50813567ffffffffffffffff8111156113a057600080fd5b6020830191508360208285010111156113b857600080fd5b9250929050565b600080600080606085870312156113d557600080fd5b6113de8561132e565b935060208501359250604085013567ffffffffffffffff81111561140157600080fd5b61140d87828801611376565b95989497509550505050565b634e487b7160e01b600052604160045260246000fd5b604051601f8201601f1916810167ffffffffffffffff8111828210171561145857611458611419565b604052919050565b60008060006060848603121561147557600080fd5b8335925060208085013567ffffffffffffffff8082111561149557600080fd5b818701915087601f8301126114a957600080fd5b8135818111156114bb576114bb611419565b6114cd601f8201601f1916850161142f565b915080825288848285010111156114e357600080fd5b8084840185840137600084828401015250809450505050604084013590509250925092565b6000806000806000806080878903121561152157600080fd5b61152a8761132e565b9550602087013567ffffffffffffffff8082111561154757600080fd5b6115538a838b01611376565b909750955060408901359450606089013591508082111561157357600080fd5b5061158089828a01611376565b979a9699509497509295939492505050565b60008083601f8401126115a457600080fd5b50813567ffffffffffffffff8111156115bc57600080fd5b6020830191508360208260051b85010111156113b857600080fd5b600080600080600080608087890312156115f057600080fd5b863567ffffffffffffffff8082111561160857600080fd5b818901915089601f83011261161c57600080fd5b813560208282111561163057611630611419565b8160051b61163f82820161142f565b928352848101820192828101908e85111561165957600080fd5b958301955b8487101561167e5761166f8761132e565b8252958301959083019061165e565b9b5050508a01359250508082111561169557600080fd5b6115538a838b01611592565b6000815180845260005b818110156116c7576020818501810151868301820152016116ab565b506000602082860101526020601f19601f83011685010191505092915050565b60ff60f81b881681526000602060e0602084015261170860e084018a6116a1565b838103604085015261171a818a6116a1565b606085018990526001600160a01b038816608086015260a0850187905284810360c08601528551808252602080880193509091019060005b8181101561176e57835183529284019291840191600101611752565b50909c9b505050505050505050505050565b60006020828403121561179257600080fd5b5051919050565b8183823760009101908152919050565b815160009082906020808601845b838110156117dc5781516001600160a01b0316855293820193908201906001016117b7565b50929695505050505050565b634e487b7160e01b600052603260045260246000fd5b6000808335601e1984360301811261181557600080fd5b83018035915067ffffffffffffffff82111561183057600080fd5b6020019150368190038213156113b857600080fd5b815160009082906020808601845b838110156117dc57815185529382019390820190600101611853565b634e487b7160e01b600052602160045260246000fd5b600181811c9082168061189957607f821691505b6020821081036118b957634e487b7160e01b600052602260045260246000fd5b5091905056fe71d98c4c57ac41ab6c267d775dd524f57f99d0415ec2bcc47d70d31c0efd17b1a2646970667358221220096909c480df372a3c53c0e2c0a364f19a5a30a9b08f2fc13fc306706fbfd4cc64736f6c63430008190033ba272f7c1126fd55bcfa14f28b454a38c350674073ade218b9dfdce40c1d0194a26469706673582212202ab0262b30d08dd475c7b107d671989113547499f24928c1e2cb83cb70dd16c764736f6c63430008190033003e1d629c42fadb08d65dad7500c211ed988ea4560b14fca6d4aea74d8c3a11","linkReferences":{}},"methodIdentifiers":{"DEFAULT_ADMIN_ROLE()":"a217fddf","REQUIRED_STORAGE_DEPOSIT_FEE_ROLE()":"490faada","STATION_MANAGER_ROLE()":"71c925c3","changeStorageDepositFee(uint256)":"50cd07f6","checkStorageDepositFeeAddresses(address[])":"4b590ceb","deployMachineSmartAccount(address,uint256,bytes)":"471e60b7","eip712Domain()":"84b0196e","executeMachineBatchTransactions(address,address[],bytes[],uint256,bytes,bytes)":"79a2cd4f","executeMachineTransaction(address,address,bytes,uint256,bytes,bytes)":"06c90d7b","executeMachineTransferBalance(address,address,uint256,bytes,bytes)":"a1321906","executeTransaction(address,bytes,uint256,bytes)":"ed00dcb5","getDomainSeparator()":"ed24911d","getRoleAdmin(bytes32)":"248a9ca3","grantRole(bytes32,address)":"2f2ff15d","hasRole(bytes32,address)":"91d14854","renounceRole(bytes32,address)":"36568abe","revokeRole(bytes32,address)":"d547741f","supportsInterface(bytes4)":"01ffc9a7","transferMachineStationBalance(address,uint256,bytes)":"f38459eb"},"id":46}